:020000040800F2
:10000000A00C00209D010008131500080B14000827
:1000100011150008D5020008591900080000000059
:10002000000000000000000000000000171500089C
:10003000D70200080000000015150008D1150008BF
:10004000B7010008B7010008B7010008B7010008B0
:10005000B7010008B7010008B7010008B7010008A0
:10006000B7010008B7010008B7010008B701000890
:10007000B7010008B7010008B7010008B701000880
:10008000B7010008B7010008B7010008B701000870
:10009000B7010008B7010008B7010008B701000860
:1000A000B7010008B7010008B7010008B701000850
:1000B000B7010008B7010008B7010008B701000840
:1000C000B7010008B7010008B7010008B701000830
:1000D000B7010008B7010008B7010008B701000820
:1000E000B7010008B7010008B7010008B701000810
:1000F000B7010008B7010008B7010008B701000800
:10010000B7010008B7010008B7010008B7010008EF
:1001100079160008B7010008B7010008B701000808
:10012000B7010008B7010008B7010008B7010008CF
:10013000B7010008B7010008B7010008B7010008BF
:10014000B7010008B7010008B7010008B7010008AF
:10015000B7010008B7010008B7010008B70100089F
:10016000B7010008B7010008B7010008B70100088F
:10017000B7010008B7010008B7010008000000003F
:10018000B7010008B7010008DFF80CD000F090F8C4
:1001900000480047291B0008A00C002006488047A3
:1001A00006480047FEE7FEE7FEE7FEE7FEE7FEE75C
:1001B000FEE7FEE7FEE7FEE7691600088901000892
:1001C0002DE9F05F0546002092469B46884606468C
:1001D000814640241BE0284641464746224600F01F
:1001E00057F853465A46C01A914110D31146184643
:1001F000224600F03EF82D1A67EB01084F462246D2
:100200000120002100F035F817EB00094E41201EB7
:10021000A4F10104DFDC484631462A464346BDE8E6
:10022000F09FD2B201E000F8012B491EFBD27047CB
:100230000022F6E710B513460A4604461946FFF7B2
:10024000F0FF204610BD30B50B46014600202022AD
:10025000012409E021FA02F59D4205D303FA02F5D3
:10026000491B04FA02F52844151EA2F10102F1DC33
:1002700030BD202A04DB203A00FA02F1002070474A
:100280009140C2F1200320FA03F3194390407047D4
:10029000202A04DB203A21FA02F00021704721FADB
:1002A00002F3D040C2F12002914008431946704742
:1002B000064C074D06E0E06840F0010394E80700B3
:1002C00098471034AC42F6D3FFF762FF101D0008C8
:1002D000301D0008FEE7704772B6FEE7002229B124
:1002E00001291AD002291BD04FF440720E490B6825
:1002F00023F440730B600B6813430B600A6822F011
:10030000F8020A600A68022303EBC00002430A6095
:10031000086840F48030086070474FF48072E5E769
:100320004FF40072E2E70000103C024013480168FD
:1003300089050FD5016821F400710160016841F45D
:1003400000610160016821F400610160016841F40D
:1003500000710160016849050FD5016821F48061D1
:100360000160016841F480510160016821F480510D
:100370000160016841F4806101607047003C024007
:1003800008490A6822F440720A600A6842F00402CE
:100390000A600A684FF4803343EA002002430A608F
:1003A00070470000103C0240064A136823F4407373
:1003B000136013681360136843F001031360017046
:1003C00070470000103C0240094910B50C6824F445
:1003D00040740C600C6844F440740C600C6844F089
:1003E00001040C600260BFF36F8F436010BD00001A
:1003F000103C0240074A136823F4407313601368EB
:1004000043F480731360136843F0010313600180A9
:1004100070470000103C0240074A136823F4407301
:100420001360136843F400731360136843F001030F
:100430001360016070470000103C024017490868D3
:10044000C206174805D5C26942F01002C2611022E7
:100450000A600A68920605D5C26942F00802C261C4
:1004600020220A600A68520605D5C26942F00402D9
:10047000C26140220A600A68120605D5C26942F0CC
:100480000202C26180220A600A68920705D5C26929
:1004900042F02002C2610220086070470C3C02401A
:1004A0001C00002070B5114904460020C86100F00E
:1004B00031FA06460E4D09E0601C07D024B100F069
:1004C00029FA801BA04201D9032070BD2868C0030F
:1004D000F2D42868C00701D001202860286810F0F5
:1004E000F200F2D0FFF7AAFF012070BD1C0000202F
:1004F0000C3C02402DE9F0410446876D00F00AFAF9
:10050000064694F835000025022806D08020606554
:1005100084F834500120BDE8F0812068016821F0A2
:10052000160101602068416921F080014161206C61
:1005300008B9A06C20B12068016821F008010160B1
:100540002068016821F0010101600CE000F0E2F98F
:10055000801B052807D920206065032084F835001A
:1005600084F83450D7E720680068C007EED194F8CB
:100570005C103F208840B860012084F8350084F882
:1005800034500020C7E790F83510022903D08021AD
:10059000416501207047052180F835100068016829
:1005A00021F00101016000207047000070B5044691
:1005B00000F0B0F90546601C02D0044800780444FD
:1005C00000F0A8F9401BA042FAD370BD040000203F
:1005D0002DE9F047044622480F46017E01290AD042
:1005E0000121804601764CF250394846FFF75AFF08
:1005F000020003D02FE00220BDE8F0874FF0FF306B
:1006000038602068174D012801D0A6681CE0207CC6
:100610006168FFF7B5FE4846FFF744FF02462868C9
:1006200020F00400286014E0217C3046FFF756FEDD
:100630004846FFF737FF0200286820F0FA002860DC
:1006400001D03E6005E0761CD4E902100844B042B7
:10065000EAD8FFF76BFE002188F818101046CBE7A8
:100660001C000020103C02400348016841F000419A
:100670000160002070470000103C02402DE9F04767
:100680001B4E05461446307E1F468946012808D079
:10069000012030764CF250384046FFF703FF18B186
:1006A00014E00220BDE8F0879DB1012D16D0022D87
:1006B00019D022463B464846FFF786FE4046FFF7E4
:1006C000F1FE0C490A6822F001020A60002131762D
:1006D000E8E7E1B24846FFF767FEEFE7A1B2484618
:1006E000FFF788FEEAE721464846FFF795FEE5E773
:1006F0001C000020103C0240074900200A68002A24
:1007000009DA054A054B0C3A1360054B136009687A
:10071000002900DA01207047103C024023016745A0
:10072000AB89EFCD2DE9F84FDFF8BCA10022012500
:1007300003264FF00F090AF1040BAAF1040E00BFC3
:100740000B6805FA02F42340A34270D10F7907F039
:100750000307012F01D0022F16D187684FEA420804
:1007600006FA08FC27EA0C07D1F80CC00CFA08FCC2
:100770004CEA070CC0F808C04768A7430C79C4F3DB
:10078000001494403C4344600C79E443A4070AD02D
:10079000C4684FEA420C06FA0CF7BC438F6807FAAC
:1007A0000CF72743C7600C7904F00304022C12D124
:1007B000D40800EB840CDCF820405707FF0E09FA40
:1007C00007F824EA0804D1F8108008FA07F848EA84
:1007D0000408CCF8208004684FEA420C06FA0CF7B3
:1007E000BC430F7907F0030707FA0CF727430760AC
:1007F0004C6814F4403F70D03C4C276847F4804765
:100800002760246822F0030704F480440094384CE5
:1008100007EB040CDCF8084897074FEA177809FA49
:1008200008F7BC43334FB84202D1002724E054E01C
:10083000314FB84201D101271EE0304FB84201D1FB
:10084000022719E02E4FB84201D1032714E02D4FA3
:10085000B84201D104270FE02B4FB84201D1052740
:100860000AE02A4FB84201D1062705E0284FB842D6
:1008700001D1072700E0082707FA08F72743CCF83B
:100880000878DAF800405746D1F804C09C435FEA84
:10089000CC2C00D51C433C60DBF800405F46D1F80F
:1008A00004C09C435FEA8C2C00D51C433C60DEF8FE
:1008B00000407746D1F804C09C435FEA8C3C00D5E9
:1008C0001C433C60084F083F3C68D1F804C09C437F
:1008D0005FEACC3C00D51C433C60521C102AFFF45C
:1008E0002FAFBDE8F88F0000083C014044380240BB
:1008F00000300140000002400004024000080240B5
:10090000000C024000100240001402400018024097
:10091000001C02400148806870470000040000206D
:100920000248816802781144816070470400002009
:100930000B4810B5016841F400710160016841F491
:1009400080610160016841F480710160032000F062
:100950006FF80F2000F006F800F024F8002010BD1A
:10096000003C024070B50D4D04464FF47A71287872
:10097000B1FBF0F00A490968B1FBF0F000F00CFBA4
:1009800048B9102C07D200222146501E00F030F842
:1009900000206C6070BD012070BD000004000020CC
:1009A000000000200A4808B5016841F48041016058
:1009B000006800F4804000900548001F016841F085
:1009C00080510160006800F08050009008BD000078
:1009D00044380240002809DB00F01F020121914049
:1009E0004009800000F1E020C0F8001170470000CD
:1009F000F0B40E4B1B680C46C3F30223C3F107058A
:100A0000042D00D90425191D072901D2002300E077
:100A1000DB1E012606FA05F1491E214099409E4041
:100A2000761E16403143F0BC00F0A8BF0CED00E08C
:100A3000064900F0070208684FF6FF03184040EA35
:100A40000220034A10430860704700000CED00E0EC
:100A50000000FA052DE9F0470E46050065D0DFF8E5
:100A60001481D8F80000F7B200F00700B04207D2B6
:100A700088F80070D8F8000000F00700B04254D1A8
:100A800028683D4C810712D5400703D5206840F403
:100A9000E05020602878000703D5206840F46040CB
:100AA00020602068A96820F0F000084320602878C2
:100AB000C0072DD0304968680839012812D00228B3
:100AC00013D0032811D00968890700292DDA21687D
:100AD00021F0030101432160FFF71CFF814641F231
:100AE000883A0EE009688903EFE709688901ECE7B5
:100AF000FFF710FFA0EB0901514502D90320BDE823
:100B0000F0872068696800F00C00B0EB810FEFD12E
:100B1000D8F80010404601F00701B14207D907702C
:100B2000006800F00700B04201D00120E7E7287814
:100B3000400705D52068E96820F4E05008432060AC
:100B40002878000706D52068296920F4604040EA2B
:100B5000C100206000F038F82168084AC1F3031191
:100B6000515CC8400649086006480068FFF7FAFE75
:100B70000020C4E7003C024008380240F81C00088E
:100B800000000020080000200448054900680968AA
:100B9000044AC1F38221515CC84070470000002024
:100BA00008380240081D0008044805490068096823
:100BB000044AC1F34231515CC84070470000002034
:100BC00008380240081D0008154810B5006810F0EC
:100BD0000C02144813D01449042A0FD0082A0ED14D
:100BE0000F4C241F2268236802F03F025B0207D5E6
:100BF0002068C0F38810A0FB010106E0084610BD84
:100C00002168C1F38811A1FB00010023FFF7D8FA86
:100C10002168C1F30141491C4900B0FBF1F010BD4E
:100C2000083802400024F40040787D012DE9F84F97
:100C300004006ED02078DFF84C93C007A9F10405BA
:100C40004AD009F104000168C1F38101012908D0EB
:100C50000068C0F3810002280AD1D9F800004002E0
:100C600006D52868800337D560680028E1D033E0D6
:100C70006068B0F5803F10D0B0F5A02F286810D084
:100C800020F480302860286820F480202860606884
:100C9000A8B1FFF73FFE06460DE0286840F480301B
:100CA000F4E740F480202860F7E700BFFFF732FE4A
:100CB000801B642873D828688003F7D50CE0FFF701
:100CC00029FE064605E000BFFFF724FE801B6428CE
:100CD000F0D828688003F7D42078DFF8AC8280074A
:100CE0004FF0000A3ED5A748001D016811F00C0F17
:100CF00008D00068C0F3810002280BD1D9F80000A9
:100D0000400207D42868800716D5E068012800D182
:100D100012E033E1E068B8B10120C8F80000FFF745
:100D2000F9FD064605E000BFFFF7F4FD801B022831
:100D3000C0D828688007F7D52868216920F0F80016
:100D400040EAC10028600DE0C8F800A0FFF7E2FD0E
:100D5000064604E0FFF7DEFD801B02281FD8286846
:100D60008007F7D42078000722D5864F874861692D
:100D7000703771B101210160FFF7CCFD064604E038
:100D8000FFF7C8FD801B022809D838688007F7D50F
:100D90000EE0C0F800A0FFF7BDFD064605E082E0CA
:100DA000FFF7B8FD801B02287DD838688007F7D48C
:100DB0002078400768D5DFF8CCB100270BF13C0B59
:100DC000DBF80000C0000BD4DBF8001041F08051CC
:100DD000CBF80010DBF80000012700F080500090F5
:100DE0006B4E3068C00510D4306840F480703060BD
:100DF000FFF790FD009005E0FFF78CFD0099401A89
:100E0000022850D83068C005F6D55E4EA0686C3612
:100E100001280FD00528306810D020F00100306084
:100E2000306820F004003060A068B8B1FFF772FDB0
:100E300000900FE0306840F00100F4E740F004005B
:100E40003060F7E7FFF766FD0099411A41F28830FC
:100E5000814266D830688007F4D50EE0FFF75AFD6E
:100E6000009007E0FFF756FD0099411A41F28830E3
:100E7000814256D830688007F4D42FB1DBF80010D7
:100E800021F08051CBF80010A069C8B33D49091D7D
:100E90000968C1F3810102294AD00228504607D0CF
:100EA000C8F8600000E03CE0FFF734FD04463BE09A
:100EB0004746C8F86000FFF72DFD064605E000BF75
:100EC000FFF728FD801B02282BD828688001F7D463
:100ED000D4E907010843A16A2E4A490802EB0141FF
:100EE000626A41EA8211084394F82C1040EA0161D9
:100EF000C9F8001001203866FFF70CFD044606E033
:100F00003EE000BFFFF706FD001B022809D8286855
:100F10008001F7D534E000BFFFF7FCFC001B02287E
:100F200002D90320BDE8F88F28688001F4D427E0B7
:100F30000128F7D0D9F80000E26900F4800191425D
:100F40001CD1226A00F03F01914217D147F6C071CF
:100F5000626A0140B1EB821F10D1A26A4FF0FF33E9
:100F600000F4403103EB5202B1EB024F06D194F88A
:100F70002C1000F07060B0EB016F01D00120D1E7C0
:100F80000020CFE70438024000004742800E47426D
:100F9000007000400000FFFF10B5401EB0F1807FE0
:100FA00001D3012010BD4FF0E02460610F216017D4
:100FB00000F0E4FC0020A06107202061002010BDAB
:100FC00070477047F8B5016804460868CA684B69FD
:100FD00010F00F0F4FF0000559D003F0010602F496
:100FE0009077374365D0C10705D0D10503D5616C33
:100FF00041F001016164410705D5D90703D0616C57
:1010000041F002016164810705D5D90703D0616C05
:1010100041F004016164010707D502F0200131436A
:1010200003D0616C41F008016164616C00293AD021
:10103000800604D5900602D5204600F052FB2068B9
:101040004069616CC0F38010090700D460B320468A
:1010500000F020FB20684069400621D5206814304C
:1010600050E8001F21F0400140E80012002AF5D1AD
:10107000E06BA8B16E490165E06BFFF784FA0028C8
:1010800011D0E06B016D01B0BDE8F0400847830668
:101090000FD593060DD52046BDE8F84000F021BBE2
:1010A0002046FFF78EFFF8BD2046FFF78AFF6564F4
:1010B000F8BD266B2023012E7DD1C6067BD5D60632
:1010C00079D508684868009048694FF002064006E4
:1010D00041D5E16B086840680004000CE8D0A28D9F
:1010E0008242E5D9E085C869B0F5807F2DD02068BF
:1010F0000C3050E8001F21F4807140E80012002AF3
:10110000F5D12068143050E8001F21F0010140E8BB
:101110000012002AF5D12068143050E8001F21F099
:10112000400140E80012002AF5D184F842302563DE
:1011300020680C3050E8001F21F0100140E8001238
:10114000002AF5D1E06BFFF7D5F96663A08DE18D3C
:10115000401A81B22AE0A08DE18D401A81B2E08D63
:101160000028A5D00029A3D022680C3252E8000F35
:1011700020F4907042E80007002FF5D12068143069
:1011800050E8002F22F0010240E80027002FF5D19F
:1011900084F84230256320680C3050E8002F22F09C
:1011A000100240E80023002BF5D166632046FFF7CC
:1011B00007FFF8BDFFE705062BD5150629D594F8DE
:1011C00041002128F5D1A068B0F5805F01D12069E8
:1011D000B0B1206A411C2162216800784860E08C2F
:1011E000401E0004000CE084E3D12068C16821F0B7
:1011F0008001C1602068C16841F04001C160D8E74A
:10120000206A0088C0F308004860206A801C2062C1
:10121000E5E74006CDD55006CBD5CA68204622F07A
:101220004002CA6084F8413000F0EEF8C1E70000E7
:101230008516000870B5040004D094F8410000251C
:1012400010B106E0012070BD84F84050204600F047
:1012500023F8242084F841002068C16821F400515B
:10126000C160204600F09EFA2068016921F4904197
:1012700001612068416921F02A0141612068C1684B
:1012800041F40051C1606564202084F8410084F875
:1012900042006563002070BD10B586B0044614217D
:1012A0006846FEF7C5FF17492068884227D11648CF
:1012B0000021026842F400220260006800F400206D
:1012C000059011481038026842F00102026000687F
:1012D000022200F0010005900320CDE90210CDE9C3
:1012E00000020820049069460848FFF71BFA002214
:1012F00002213420FFF77CFB3420FFF76BFB06B0A4
:1013000010BD0000004C0040403802400000024088
:1013100090F84230202B01D00220704721B11AB141
:101320000023036300F0C4BA0120704700680A4933
:1013300088420FD109484168B1F5C83F05D2084B32
:1013400002785A544188491C4180012203490548CA
:10135000FFF7DEBF70470000004C00401000002087
:1013600000100020540800202DE9F843044690F8AE
:101370004100984616460D46202802D00220BDE8BE
:10138000F88385B17EB100206064212084F841009B
:10139000FFF7C0FAA6848146E684A0682027B0F54E
:1013A000805F02D003E00120E9E7206910B12E46FA
:1013B00000250EE000260CE08021204600F093FA84
:1013C000A8B9C6B116F8010B21684860E08C401E30
:1013D000E084E08C4B464FF00002CDF800800028FE
:1013E000EAD14FF04001204600F07DFA40B184F888
:1013F00041700320C3E735F8020BC0F30800E3E7B0
:1014000084F841700020BAE77047FEE72DE9F04705
:101410000024904607460D4626464FF40079DFF833
:101420004CA016E06978002040EA012115F8040B71
:101430004A4608434AF82400641CA4B2944206D1E8
:1014400000240A49384600F067F807F50067361DA2
:10145000B6B24645E6D3002C06D022463846BDE853
:10146000F047024900F058B8BDE8F087540000206A
:1014700010B5044608A000F071FA2068074908403A
:10148000B0F1005F06D16068216881F30888BDE88B
:101490001040004710BD00006F6B00000000FE2FE1
:1014A000094808B5016841F080010160016801F058
:1014B00080010091016841F001010160006800F0C5
:1014C0000100009008BD0000303802400E4810B501
:1014D0000C4901604FF4E1314160002181600C2230
:1014E000C160C0E904128161C161FFF7A3FE08B1C8
:1014F000FEF7F2FEBDE81040012204490248FFF762
:1015000007BF0000004C00405408002010000020DD
:10151000FEE7FEE7704770472DE9F04F87B00446BD
:101520004FF00009A0F1006017460E46CDF8149068
:10153000B0F5801F45D8A00743D1FFF7DDF8DFF8ED
:101540008880D8F8001021F48061C8F800101F4886
:10155000254604EB87074CF2503A844214D24FF0F0
:10156000010BBD4210D22868401C12D02846CDF88D
:10157000009000F071FBCDE9020B0220049005A958
:101580006846FFF725F828B15046FEF78BFF70B18B
:101590000FE02D1D5046FEF785FFE2E700232146B0
:1015A00002203268FFF76AF818B9241D361DBC42C4
:1015B000F4D3D8F8001041F48061C8F80010FFF7A8
:1015C00053F807B0BDE8F08F003C02400000FF1F59
:1015D000FFF7A6B930B593B030216846FEF728FE74
:1015E00014210CA8FEF724FE1D480025016841F0D7
:1015F00080510160006800F0805011901948016826
:1016000041F4804101600068022400F480401190A0
:101610000120039010200490009406940820CDE946
:101620000750A820CDE9090404200B906846FFF775
:10163000FDFA08B172B6FEE70CA90F2081E831006F
:101640004FF4A0500F904FF48050109005210CA83B
:10165000FFF700FA002801D072B6FEE713B030BDE4
:1016600040380240007000400248016841F47001B7
:101670000160704788ED00E00148FFF7A3BC00005F
:101680005408002010B5806B0021C185C184FFF78C
:1016900098FC10BD01680C3151E8002F22F49072C3
:1016A00041E80023002BF5D10168143151E8002FE7
:1016B00022F0010241E80023002BF5D1016B012942
:1016C00009D101680C3151E8002F22F0100241E8E5
:1016D0000023002BF5D1202180F842100021016366
:1016E000704708B590F84210222901D0022008BDA9
:1016F00082684FF480539A4201D1016921B1816A15
:101700009A421BD04AB10AE00268816A5268C2F369
:1017100008020A80816A891C08E0026972B10268C5
:10172000526802F07F020A70816A491C8162C18D91
:10173000491E0904090CC18503D01BE002685268E8
:10174000F1E70168CA6822F02002CA600168CA682D
:1017500022F48072CA6001684A6922F001024A617B
:10176000202180F8421000214163026B012A03D03E
:10177000FFF7DCFD002008BD016301680C3151E872
:10178000002F22F0100241E80023002BF5D1016860
:101790000A68D20602D50A6849680091818DFFF770
:1017A0000FFCE7E770B5044600680169E26821F4C0
:1017B0004051114301612169A068E26908436169F0
:1017C000114308432168CA6849F20C639A430243F3
:1017D000CA6020684169A26921F4407111434161E6
:1017E00031492068884202D03049884202D1FFF74F
:1017F000DBF901E0FFF7C8F9E2690023192164254C
:101800003226B2F5004F626828D0A0FB0101930F89
:101810009200FEF7D5FC0146B0FBF5F06FF0180220
:10182000504301EB800006EB0010B0FBF5F000F038
:10183000F002B1FBF5F002EB0012B1FBF5F06FF036
:101840001803584301EB800006EB0010B0FBF5F0E5
:1018500000F00F0021681044886070BDA0FB0101FA
:1018600092185B41FEF7ACFC0146B0FBF5F00201BB
:10187000B1FBF5F06FF01803584301EB800006EB65
:10188000C000B0FBF5F000F0F80002EB4002B1FB45
:10189000F5F0584301EB800006EBC000B0FBF5F01B
:1018A00000F00700D6E700000010014000140140DE
:1018B00081628285C28500214164222180F8421024
:1018C000016921B10168CA6842F48072CA60016886
:1018D0004A6942F001024A610068C16841F0200192
:1018E000C160002070472DE9F843984617460D4621
:1018F0000446089E24E0701C22D0FFF70BF8A0EBF2
:101900000800B0421AD8CEB12068C168490717D57F
:10191000802D15D0402D13D00168C94309070FD47D
:1019200001680025406800902046FFF7B3FE0820BC
:10193000606484F840500120BDE8F8830320FBE791
:101940002068006835EA000004D00020B842D2D0F8
:101950000020F1E70120F9E7FEE700000FB4054B96
:1019600010B503A9044A029800F028F810BC5DF8ED
:1019700014FB0000111B0008180000200907090EC5
:10198000002804DB00F1E02080F80014704700F02C
:101990000F0000F1E02080F8141D704702E008C835
:1019A000121F08C1002AFAD170477047002001E0D9
:1019B00001C1121F002AFBD1704700002DE9FF4F23
:1019C00089B09B460446002506E025280BD05A46E0
:1019D0000B999047641C6D1C20780028F5D10DB040
:1019E0002846BDE8F08F0027B8460122474900E0AD
:1019F000074314F8013F203B02FA03F00842F7D1F5
:101A000020782E2819D114F8010F47F004072A284E
:101A10000ED06FF02F022078A0F1300109290CD8E8
:101A200008EB880102EB410100EB0108641CF2E7BE
:101A30000A98641C50F8048B0A9020780028CED0B5
:101A4000642808D0692806D075281ED05A460B99FC
:101A500090476D1C58E00A994FF00A0901C90A9194
:101A6000002802DA40422D2102E0390504D52B215D
:101A70008DF82010012103E0F90704D02021F7E7B9
:101A80008A4608AE0DE00021FAE70A994FF00A09EC
:101A900001C90A91F7E74946FEF7D5FB303106F850
:101AA000011D0028F7D1ADEB060000F120097807F1
:101AB00001D44FF00108C84502DDA8EB090000E0A1
:101AC00000208046002706E008A85A46C05D0B9912
:101AD00090476D1C7F1C5745F6DB04E030205A46CA
:101AE0000B9990476D1CB8F10001A8F10108F5DCD5
:101AF00005E016F8010B5A460B9990476D1CB9F199
:101B00000001A9F10109F4DC641C65E70928010062
:101B100013B54FF0FF33012269460248FFF724FC5A
:101B200000981CBD5408002000252C462E46012795
:101B3000FEF7FEFEFFF74EFDFFF7B2FCFFF7C6FC17
:101B4000DFF88CA0DFF88C804FF008094FF4FA7BA7
:101B5000DAF8000070B185420BD1044600251EA0C2
:101B6000CAF80050FFF7FAFE214620A0FFF7F6FE64
:101B700001E00546BCB1012F03D121A0FFF7EEFE25
:101B8000002724484168B9EB116F09D12246224948
:101B90004046FFF73BFC21A0FFF7E0FE012604E0F2
:101BA00022A0FFF7DBFE012E0DD1D8F80410B9EB0F
:101BB000116F08D122A0FFF7D1FE0A20FEF7F6FC34
:101BC0004046FFF755FC5846FEF7F0FCC0E7000022
:101BD0001400002000900108D3C3BBA7B3CCD0F2FF
:101BE000BDD3CAD5CDEAB3C9210D0A00B4FAC2EB00
:101BF000B3A4B6C83A256442797465730D0A00002F
:101C0000BFAACABCB8FCD0C2B9CCBCFE2E2E2E0DC9
:101C10000A0000000010002000100020B9CCBCFE1B
:101C2000B8FCD0C2CDEAB3C9210D0A00B7C7464CF3
:101C3000415348D3A6D3C3B3CCD0F2210D0A000040
:101C4000BFAACABCD6B4D0D0464C415348B4FAC29D
:101C5000EB210D0A000000001C49884201D200203F
:101C600070471B49884201D20120704719498842B8
:101C700001D2022070471849884201D203207047E0
:101C80001649884201D2042070471549884201D282
:101C9000052070471349884201D206207047124937
:101CA000884201D2072070471049884201D208209B
:101CB00070470F49884201D2092070470D49884278
:101CC00001D20A2070470B20704700000040000836
:101CD0000080000800C000080000010800000208A1
:101CE00000000408000006080000080800000A08B8
:101CF00000000C0800000E080000000000000000BA
:101D000001020304060708090000000001020304A1
:101D1000301D0008000000201C0000009C19000875
:101D20004C1D00081C000020E49F0100AC190008B5
:101D30000024F4000100000010000000000000007A
:0C1D400000000000000000000000000097
:040000050800018965
:00000001FF
